{
  "contractName": "VehicleRentingSystem",
  "abi": [
    {
      "inputs": [],
      "payable": false,
      "stateMutability": "nonpayable",
      "type": "constructor"
    },
    {
      "anonymous": false,
      "inputs": [
        {
          "indexed": true,
          "internalType": "address",
          "name": "renterAddress",
          "type": "address"
        },
        {
          "indexed": true,
          "internalType": "address",
          "name": "renteeAddress",
          "type": "address"
        },
        {
          "indexed": false,
          "internalType": "uint256",
          "name": "amount",
          "type": "uint256"
        }
      ],
      "name": "MoneyTransferred",
      "type": "event"
    },
    {
      "anonymous": false,
      "inputs": [
        {
          "indexed": true,
          "internalType": "address",
          "name": "renterAddress",
          "type": "address"
        },
        {
          "indexed": false,
          "internalType": "string",
          "name": "name",
          "type": "string"
        }
      ],
      "name": "RenterRegistered",
      "type": "event"
    },
    {
      "anonymous": false,
      "inputs": [
        {
          "indexed": true,
          "internalType": "address",
          "name": "vehicleAddress",
          "type": "address"
        },
        {
          "indexed": false,
          "internalType": "string",
          "name": "make",
          "type": "string"
        },
        {
          "indexed": false,
          "internalType": "string",
          "name": "model",
          "type": "string"
        },
        {
          "indexed": false,
          "internalType": "uint256",
          "name": "rentalPrice",
          "type": "uint256"
        }
      ],
      "name": "VehicleAdded",
      "type": "event"
    },
    {
      "anonymous": false,
      "inputs": [
        {
          "indexed": true,
          "internalType": "address",
          "name": "vehicleAddress",
          "type": "address"
        },
        {
          "indexed": true,
          "internalType": "address",
          "name": "renteeAddress",
          "type": "address"
        },
        {
          "indexed": false,
          "internalType": "uint256",
          "name": "rentalAmount",
          "type": "uint256"
        }
      ],
      "name": "VehicleRented",
      "type": "event"
    },
    {
      "anonymous": false,
      "inputs": [
        {
          "indexed": true,
          "internalType": "address",
          "name": "vehicleAddress",
          "type": "address"
        },
        {
          "indexed": true,
          "internalType": "address",
          "name": "renteeAddress",
          "type": "address"
        }
      ],
      "name": "VehicleReturned",
      "type": "event"
    },
    {
      "constant": true,
      "inputs": [],
      "name": "owner",
      "outputs": [
        {
          "internalType": "address",
          "name": "",
          "type": "address"
        }
      ],
      "payable": false,
      "stateMutability": "view",
      "type": "function"
    },
    {
      "constant": true,
      "inputs": [
        {
          "internalType": "address",
          "name": "",
          "type": "address"
        }
      ],
      "name": "rentees",
      "outputs": [
        {
          "internalType": "address",
          "name": "renteeAddress",
          "type": "address"
        },
        {
          "internalType": "string",
          "name": "name",
          "type": "string"
        },
        {
          "internalType": "uint256",
          "name": "balance",
          "type": "uint256"
        }
      ],
      "payable": false,
      "stateMutability": "view",
      "type": "function"
    },
    {
      "constant": true,
      "inputs": [
        {
          "internalType": "address",
          "name": "",
          "type": "address"
        }
      ],
      "name": "renters",
      "outputs": [
        {
          "internalType": "address",
          "name": "renterAddress",
          "type": "address"
        },
        {
          "internalType": "string",
          "name": "name",
          "type": "string"
        }
      ],
      "payable": false,
      "stateMutability": "view",
      "type": "function"
    },
    {
      "constant": true,
      "inputs": [
        {
          "internalType": "address",
          "name": "",
          "type": "address"
        }
      ],
      "name": "vehicles",
      "outputs": [
        {
          "internalType": "string",
          "name": "make",
          "type": "string"
        },
        {
          "internalType": "string",
          "name": "model",
          "type": "string"
        },
        {
          "internalType": "uint256",
          "name": "rentalPrice",
          "type": "uint256"
        },
        {
          "internalType": "enum VehicleRentingSystem.VehicleStatus",
          "name": "status",
          "type": "uint8"
        }
      ],
      "payable": false,
      "stateMutability": "view",
      "type": "function"
    },
    {
      "constant": true,
      "inputs": [
        {
          "internalType": "uint256",
          "name": "",
          "type": "uint256"
        }
      ],
      "name": "vehiclesAddresses",
      "outputs": [
        {
          "internalType": "address payable",
          "name": "",
          "type": "address"
        }
      ],
      "payable": false,
      "stateMutability": "view",
      "type": "function"
    },
    {
      "constant": false,
      "inputs": [
        {
          "internalType": "string",
          "name": "make",
          "type": "string"
        },
        {
          "internalType": "string",
          "name": "model",
          "type": "string"
        },
        {
          "internalType": "uint256",
          "name": "rentalPrice",
          "type": "uint256"
        }
      ],
      "name": "addVehicle",
      "outputs": [],
      "payable": false,
      "stateMutability": "nonpayable",
      "type": "function"
    },
    {
      "constant": false,
      "inputs": [
        {
          "internalType": "address",
          "name": "renterAddress",
          "type": "address"
        },
        {
          "internalType": "string",
          "name": "name",
          "type": "string"
        }
      ],
      "name": "registerRenter",
      "outputs": [],
      "payable": false,
      "stateMutability": "nonpayable",
      "type": "function"
    },
    {
      "constant": false,
      "inputs": [
        {
          "internalType": "address",
          "name": "renteeAddress",
          "type": "address"
        },
        {
          "internalType": "string",
          "name": "name",
          "type": "string"
        },
        {
          "internalType": "uint256",
          "name": "initialBalance",
          "type": "uint256"
        }
      ],
      "name": "registerRentee",
      "outputs": [],
      "payable": false,
      "stateMutability": "nonpayable",
      "type": "function"
    },
    {
      "constant": true,
      "inputs": [],
      "name": "displayAvailableVehicles",
      "outputs": [
        {
          "internalType": "address payable[]",
          "name": "",
          "type": "address[]"
        }
      ],
      "payable": false,
      "stateMutability": "view",
      "type": "function"
    },
    {
      "constant": false,
      "inputs": [
        {
          "internalType": "address payable",
          "name": "vehicleAddress",
          "type": "address"
        }
      ],
      "name": "rentVehicle",
      "outputs": [],
      "payable": true,
      "stateMutability": "payable",
      "type": "function"
    },
    {
      "constant": false,
      "inputs": [
        {
          "internalType": "address payable",
          "name": "vehicleAddress",
          "type": "address"
        }
      ],
      "name": "returnVehicle",
      "outputs": [],
      "payable": false,
      "stateMutability": "nonpayable",
      "type": "function"
    },
    {
      "constant": true,
      "inputs": [
        {
          "internalType": "address",
          "name": "vehicleAddress",
          "type": "address"
        }
      ],
      "name": "getVehicleDetails",
      "outputs": [
        {
          "internalType": "string",
          "name": "",
          "type": "string"
        },
        {
          "internalType": "string",
          "name": "",
          "type": "string"
        },
        {
          "internalType": "uint256",
          "name": "",
          "type": "uint256"
        },
        {
          "internalType": "enum VehicleRentingSystem.VehicleStatus",
          "name": "",
          "type": "uint8"
        }
      ],
      "payable": false,
      "stateMutability": "view",
      "type": "function"
    },
    {
      "constant": true,
      "inputs": [],
      "name": "getAvailableVehicleCount",
      "outputs": [
        {
          "internalType": "uint256",
          "name": "",
          "type": "uint256"
        }
      ],
      "payable": false,
      "stateMutability": "view",
      "type": "function"
    }
  ],
  "bytecode": "0x608060405234801561001057600080fd5b50336000806101000a81548173ffffffffffffffffffffffffffffffffffffffff021916908373ffffffffffffffffffffffffffffffffffffffff16021790555061224a806100606000396000f3fe6080604052600436106100c25760003560e01c80637ec0f9591161007f578063a9a4e6e411610059578063a9a4e6e41461073e578063e35b182c14610842578063e585d046146108ae578063ece2d5dd14610954576100c2565b80637ec0f959146106415780638da5cb5b1461066c578063968883dd146106c3576100c2565b8063028e7768146100c75780630651ada71461021957806345e523b5146102fe5780635617dcf414610450578063644a13701461050057806377bb78df146105fd575b600080fd5b3480156100d357600080fd5b50610116600480360360208110156100ea57600080fd5b81019080803573ffffffffffffffffffffffffffffffffffffffff1690602001909291905050506109a5565b60405180806020018060200185815260200184600181111561013457fe5b60ff168152602001838103835287818151815260200191508051906020019080838360005b83811015610174578082015181840152602081019050610159565b50505050905090810190601f1680156101a15780820380516001836020036101000a031916815260200191505b50838103825286818151815260200191508051906020019080838360005b838110156101da5780820151818401526020810190506101bf565b50505050905090810190601f1680156102075780820380516001836020036101000a031916815260200191505b50965050505050505060405180910390f35b34801561022557600080fd5b506102fc6004803603606081101561023c57600080fd5b810190808035906020019064010000000081111561025957600080fd5b82018360208201111561026b57600080fd5b8035906020019184600183028401116401000000008311171561028d57600080fd5b9091929391929390803590602001906401000000008111156102ae57600080fd5b8201836020820111156102c057600080fd5b803590602001918460018302840111640100000000831117156102e257600080fd5b909192939192939080359060200190929190505050610b12565b005b34801561030a57600080fd5b5061034d6004803603602081101561032157600080fd5b81019080803573ffffffffffffffffffffffffffffffffffffffff169060200190929190505050610ea2565b60405180806020018060200185815260200184600181111561036b57fe5b60ff168152602001838103835287818151815260200191508051906020019080838360005b838110156103ab578082015181840152602081019050610390565b50505050905090810190601f1680156103d85780820380516001836020036101000a031916815260200191505b50838103825286818151815260200191508051906020019080838360005b838110156104115780820151818401526020810190506103f6565b50505050905090810190601f16801561043e5780820380516001836020036101000a031916815260200191505b50965050505050505060405180910390f35b34801561045c57600080fd5b506104fe6004803603606081101561047357600080fd5b81019080803573ffffffffffffffffffffffffffffffffffffffff169060200190929190803590602001906401000000008111156104b057600080fd5b8201836020820111156104c257600080fd5b803590602001918460018302840111640100000000831117156104e457600080fd5b909192939192939080359060200190929190505050611106565b005b34801561050c57600080fd5b5061054f6004803603602081101561052357600080fd5b81019080803573ffffffffffffffffffffffffffffffffffffffff1690602001909291905050506112f3565b604051808373ffffffffffffffffffffffffffffffffffffffff1673ffffffffffffffffffffffffffffffffffffffff16815260200180602001828103825283818151815260200191508051906020019080838360005b838110156105c15780820151818401526020810190506105a6565b50505050905090810190601f1680156105ee5780820380516001836020036101000a031916815260200191505b50935050505060405180910390f35b61063f6004803603602081101561061357600080fd5b81019080803573ffffffffffffffffffffffffffffffffffffffff1690602001909291905050506113cf565b005b34801561064d57600080fd5b506106566118e7565b6040518082815260200191505060405180910390f35b34801561067857600080fd5b506106816119ca565b604051808273ffffffffffffffffffffffffffffffffffffffff1673ffffffffffffffffffffffffffffffffffffffff16815260200191505060405180910390f35b3480156106cf57600080fd5b506106fc600480360360208110156106e657600080fd5b81019080803590602001909291905050506119ef565b604051808273ffffffffffffffffffffffffffffffffffffffff1673ffffffffffffffffffffffffffffffffffffffff16815260200191505060405180910390f35b34801561074a57600080fd5b5061078d6004803603602081101561076157600080fd5b81019080803573ffffffffffffffffffffffffffffffffffffffff169060200190929190505050611a2b565b604051808473ffffffffffffffffffffffffffffffffffffffff1673ffffffffffffffffffffffffffffffffffffffff16815260200180602001838152602001828103825284818151815260200191508051906020019080838360005b838110156108055780820151818401526020810190506107ea565b50505050905090810190601f1680156108325780820380516001836020036101000a031916815260200191505b5094505050505060405180910390f35b34801561084e57600080fd5b50610857611b0d565b6040518080602001828103825283818151815260200191508051906020019060200280838360005b8381101561089a57808201518184015260208101905061087f565b505050509050019250505060405180910390f35b3480156108ba57600080fd5b50610952600480360360408110156108d157600080fd5b81019080803573ffffffffffffffffffffffffffffffffffffffff1690602001909291908035906020019064010000000081111561090e57600080fd5b82018360208201111561092057600080fd5b8035906020019184600183028401116401000000008311171561094257600080fd5b9091929391929390505050611c72565b005b34801561096057600080fd5b506109a36004803603602081101561097757600080fd5b81019080803573ffffffffffffffffffffffffffffffffffffffff169060200190929190505050611ec8565b005b6002602052806000526040600020600091509050806000018054600181600116156101000203166002900480601f016020809104026020016040519081016040528092919081815260200182805460018160011615610100020316600290048015610a515780601f10610a2657610100808354040283529160200191610a51565b820191906000526020600020905b815481529060010190602001808311610a3457829003601f168201915b505050505090806001018054600181600116156101000203166002900480601f016020809104026020016040519081016040528092919081815260200182805460018160011615610100020316600290048015610aef5780601f10610ac457610100808354040283529160200191610aef565b820191906000526020600020905b815481529060010190602001808311610ad257829003601f168201915b5050505050908060020154908060030160009054906101000a900460ff16905084565b3373ffffffffffffffffffffffffffffffffffffffff16600360003373ffffffffffffffffffffffffffffffffffffffff1673ffffffffffffffffffffffffffffffffffffffff16815260200190815260200160002060000160009054906101000a900473ffffffffffffffffffffffffffffffffffffffff1673ffffffffffffffffffffffffffffffffffffffff1614610c15576040517f08c379a00000000000000000000000000000000000000000000000000000000081526004018080602001828103825260178152602001807f4e6f74206120726567697374657265642072656e74657200000000000000000081525060200191505060405180910390fd5b6000339050604051806080016040528087878080601f016020809104026020016040519081016040528093929190818152602001838380828437600081840152601f19601f82011690508083019250505050505050815260200185858080601f016020809104026020016040519081016040528093929190818152602001838380828437600081840152601f19601f82011690508083019250505050505050815260200183815260200160006001811115610ccc57fe5b815250600260008373ffffffffffffffffffffffffffffffffffffffff1673ffffffffffffffffffffffffffffffffffffffff1681526020019081526020016000206000820151816000019080519060200190610d2a929190612170565b506020820151816001019080519060200190610d47929190612170565b506040820151816002015560608201518160030160006101000a81548160ff02191690836001811115610d7657fe5b021790555090505060018190806001815401808255809150509060018203906000526020600020016000909192909190916101000a81548173ffffffffffffffffffffffffffffffffffffffff021916908373ffffffffffffffffffffffffffffffffffffffff160217905550508073ffffffffffffffffffffffffffffffffffffffff167f9b9ea01ccaad5beaa8f1da4e156e5505f0c6edcbfaea50c542cd0f77d2a007e887878787876040518080602001806020018481526020018381038352888882818152602001925080828437600081840152601f19601f8201169050808301925050508381038252868682818152602001925080828437600081840152601f19601f82011690508083019250505097505050505050505060405180910390a2505050505050565b606080600080600260008673ffffffffffffffffffffffffffffffffffffffff1673ffffffffffffffffffffffffffffffffffffffff168152602001908152602001600020600001600260008773ffffffffffffffffffffffffffffffffffffffff1673ffffffffffffffffffffffffffffffffffffffff168152602001908152602001600020600101600260008873ffffffffffffffffffffffffffffffffffffffff1673ffffffffffffffffffffffffffffffffffffffff16815260200190815260200160002060020154600260008973ffffffffffffffffffffffffffffffffffffffff1673ffffffffffffffffffffffffffffffffffffffff16815260200190815260200160002060030160009054906101000a900460ff16838054600181600116156101000203166002900480601f0160208091040260200160405190810160405280929190818152602001828054600181600116156101000203166002900480156110545780601f1061102957610100808354040283529160200191611054565b820191906000526020600020905b81548152906001019060200180831161103757829003601f168201915b50505050509350828054600181600116156101000203166002900480601f0160208091040260200160405190810160405280929190818152602001828054600181600116156101000203166002900480156110f05780601f106110c5576101008083540402835291602001916110f0565b820191906000526020600020905b8154815290600101906020018083116110d357829003601f168201915b5050505050925093509350935093509193509193565b6000809054906101000a900473ffffffffffffffffffffffffffffffffffffffff1673ffffffffffffffffffffffffffffffffffffffff163373ffffffffffffffffffffffffffffffffffffffff16146111c8576040517f08c379a000000000000000000000000000000000000000000000000000000000815260040180806020018281038252600d8152602001807f4e6f7420746865206f776e65720000000000000000000000000000000000000081525060200191505060405180910390fd5b60405180606001604052808573ffffffffffffffffffffffffffffffffffffffff16815260200184848080601f016020809104026020016040519081016040528093929190818152602001838380828437600081840152601f19601f82011690508083019250505050505050815260200182815250600460008673ffffffffffffffffffffffffffffffffffffffff1673ffffffffffffffffffffffffffffffffffffffff16815260200190815260200160002060008201518160000160006101000a81548173ffffffffffffffffffffffffffffffffffffffff021916908373ffffffffffffffffffffffffffffffffffffffff16021790555060208201518160010190805190602001906112df929190612170565b506040820151816002015590505050505050565b60036020528060005260406000206000915090508060000160009054906101000a900473ffffffffffffffffffffffffffffffffffffffff1690806001018054600181600116156101000203166002900480601f0160208091040260200160405190810160405280929190818152602001828054600181600116156101000203166002900480156113c55780601f1061139a576101008083540402835291602001916113c5565b820191906000526020600020905b8154815290600101906020018083116113a857829003601f168201915b5050505050905082565b80600060018111156113dd57fe5b600260008373ffffffffffffffffffffffffffffffffffffffff1673ffffffffffffffffffffffffffffffffffffffff16815260200190815260200160002060030160009054906101000a900460ff16600181111561143857fe5b146114ab576040517f08c379a00000000000000000000000000000000000000000000000000000000081526004018080602001828103825260188152602001807f56656869636c65206973206e6f7420617661696c61626c65000000000000000081525060200191505060405180910390fd5b338073ffffffffffffffffffffffffffffffffffffffff16600460008373ffffffffffffffffffffffffffffffffffffffff1673ffffffffffffffffffffffffffffffffffffffff16815260200190815260200160002060000160009054906101000a900473ffffffffffffffffffffffffffffffffffffffff1673ffffffffffffffffffffffffffffffffffffffff16146115af576040517f08c379a00000000000000000000000000000000000000000000000000000000081526004018080602001828103825260158152602001807f52656e746565206e6f742072656769737465726564000000000000000000000081525060200191505060405180910390fd5b6000339050600260008573ffffffffffffffffffffffffffffffffffffffff1673ffffffffffffffffffffffffffffffffffffffff1681526020019081526020016000206002015434101561166c576040517f08c379a00000000000000000000000000000000000000000000000000000000081526004018080602001828103825260178152602001807f496e636f72726563742072656e74616c20616d6f756e7400000000000000000081525060200191505060405180910390fd5b6001600260008673ffffffffffffffffffffffffffffffffffffffff1673ffffffffffffffffffffffffffffffffffffffff16815260200190815260200160002060030160006101000a81548160ff021916908360018111156116cb57fe5b02179055506000600260008673ffffffffffffffffffffffffffffffffffffffff1673ffffffffffffffffffffffffffffffffffffffff16815260200190815260200160002060020154905080600460008473ffffffffffffffffffffffffffffffffffffffff1673ffffffffffffffffffffffffffffffffffffffff168152602001908152602001600020600201600082825403925050819055506000600360003373ffffffffffffffffffffffffffffffffffffffff1673ffffffffffffffffffffffffffffffffffffffff16815260200190815260200160002060000160009054906101000a900473ffffffffffffffffffffffffffffffffffffffff1690508073ffffffffffffffffffffffffffffffffffffffff166108fc839081150290604051600060405180830381858888f19350505050158015611814573d6000803e3d6000fd5b508273ffffffffffffffffffffffffffffffffffffffff168673ffffffffffffffffffffffffffffffffffffffff167ff32f9ec0279659ef3bdb353f3c638862bb5eed9cfab77d95c8842b203d37fc42846040518082815260200191505060405180910390a38273ffffffffffffffffffffffffffffffffffffffff163373ffffffffffffffffffffffffffffffffffffffff167fa1d7584d99165acdda7faf8e4dd6f4a82d358341586d4d953060fb95c3f31e6f846040518082815260200191505060405180910390a3505050505050565b6000806000905060008090505b6001805490508110156119c25760006001828154811061191057fe5b9060005260206000200160009054906101000a900473ffffffffffffffffffffffffffffffffffffffff1690506000600181111561194a57fe5b600260008373ffffffffffffffffffffffffffffffffffffffff1673ffffffffffffffffffffffffffffffffffffffff16815260200190815260200160002060030160009054906101000a900460ff1660018111156119a557fe5b14156119b45782806001019350505b5080806001019150506118f4565b508091505090565b6000809054906101000a900473ffffffffffffffffffffffffffffffffffffffff1681565b600181815481106119fc57fe5b906000526020600020016000915054906101000a900473ffffffffffffffffffffffffffffffffffffffff1681565b60046020528060005260406000206000915090508060000160009054906101000a900473ffffffffffffffffffffffffffffffffffffffff1690806001018054600181600116156101000203166002900480601f016020809104026020016040519081016040528092919081815260200182805460018160011615610100020316600290048015611afd5780601f10611ad257610100808354040283529160200191611afd565b820191906000526020600020905b815481529060010190602001808311611ae057829003601f168201915b5050505050908060020154905083565b606080611b186118e7565b604051908082528060200260200182016040528015611b465781602001602082028038833980820191505090505b509050600080905060008090505b600180549050811015611c6957600060018281548110611b7057fe5b9060005260206000200160009054906101000a900473ffffffffffffffffffffffffffffffffffffffff16905060006001811115611baa57fe5b600260008373ffffffffffffffffffffffffffffffffffffffff1673ffffffffffffffffffffffffffffffffffffffff16815260200190815260200160002060030160009054906101000a900460ff166001811115611c0557fe5b1415611c5b5780848481518110611c1857fe5b602002602001019073ffffffffffffffffffffffffffffffffffffffff16908173ffffffffffffffffffffffffffffffffffffffff168152505082806001019350505b508080600101915050611b54565b50819250505090565b6000809054906101000a900473ffffffffffffffffffffffffffffffffffffffff1673ffffffffffffffffffffffffffffffffffffffff163373ffffffffffffffffffffffffffffffffffffffff1614611d34576040517f08c379a000000000000000000000000000000000000000000000000000000000815260040180806020018281038252600d8152602001807f4e6f7420746865206f776e65720000000000000000000000000000000000000081525060200191505060405180910390fd5b60405180604001604052808473ffffffffffffffffffffffffffffffffffffffff16815260200183838080601f016020809104026020016040519081016040528093929190818152602001838380828437600081840152601f19601f82011690508083019250505050505050815250600360008573ffffffffffffffffffffffffffffffffffffffff1673ffffffffffffffffffffffffffffffffffffffff16815260200190815260200160002060008201518160000160006101000a81548173ffffffffffffffffffffffffffffffffffffffff021916908373ffffffffffffffffffffffffffffffffffffffff1602179055506020820151816001019080519060200190611e45929190612170565b509050508273ffffffffffffffffffffffffffffffffffffffff167f9196745b441709d0330f54516183b3c0114e30f6cb7a8971b00501a20c19a4ab838360405180806020018281038252848482818152602001925080828437600081840152601f19601f820116905080830192505050935050505060405180910390a2505050565b80600180811115611ed557fe5b600260008373ffffffffffffffffffffffffffffffffffffffff1673ffffffffffffffffffffffffffffffffffffffff16815260200190815260200160002060030160009054906101000a900460ff166001811115611f3057fe5b14611fa3576040517f08c379a00000000000000000000000000000000000000000000000000000000081526004018080602001828103825260158152602001807f56656869636c65206973206e6f742072656e746564000000000000000000000081525060200191505060405180910390fd5b338073ffffffffffffffffffffffffffffffffffffffff16600460008373ffffffffffffffffffffffffffffffffffffffff1673ffffffffffffffffffffffffffffffffffffffff16815260200190815260200160002060000160009054906101000a900473ffffffffffffffffffffffffffffffffffffffff1673ffffffffffffffffffffffffffffffffffffffff16146120a7576040517f08c379a00000000000000000000000000000000000000000000000000000000081526004018080602001828103825260158152602001807f52656e746565206e6f742072656769737465726564000000000000000000000081525060200191505060405180910390fd5b60003390506000600260008673ffffffffffffffffffffffffffffffffffffffff1673ffffffffffffffffffffffffffffffffffffffff16815260200190815260200160002060030160006101000a81548160ff0219169083600181111561210b57fe5b02179055508073ffffffffffffffffffffffffffffffffffffffff168473ffffffffffffffffffffffffffffffffffffffff167f9620896b72d170c502b0108cdb71c477c0eda917053c4b986e61beb423eff90e60405160405180910390a350505050565b828054600181600116156101000203166002900490600052602060002090601f016020900481019282601f106121b157805160ff19168380011785556121df565b828001600101855582156121df579182015b828111156121de5782518255916020019190600101906121c3565b5b5090506121ec91906121f0565b5090565b61221291905b8082111561220e5760008160009055506001016121f6565b5090565b9056fea265627a7a72315820a6f18ba3cf2e856e37162e6f9f0fb42e07ece5ce02993139b58594401208255b64736f6c63430005100032",
  "source": "// SPDX-License-Identifier: MIT\r\npragma solidity 0.5.16;\r\n\r\ncontract VehicleRentingSystem {\r\n    address public owner;\r\n\r\n    enum VehicleStatus { Available, Rented }\r\n\r\n    struct Vehicle {\r\n        string make;\r\n        string model;\r\n        uint256 rentalPrice;\r\n        VehicleStatus status;\r\n    }\r\n\r\n    struct Renter {\r\n        address renterAddress;\r\n        string name;\r\n    }\r\n\r\n    struct Rentee {\r\n        address renteeAddress;\r\n        string name;\r\n        uint256 balance;\r\n    }\r\n\r\n    address payable[] public vehiclesAddresses;\r\n\r\n    mapping(address => Vehicle) public vehicles;\r\n    mapping(address => Renter) public renters;\r\n    mapping(address => Rentee) public rentees;\r\n\r\n    event VehicleAdded(address indexed vehicleAddress, string make, string model, uint256 rentalPrice);\r\n    event VehicleRented(address indexed vehicleAddress, address indexed renteeAddress, uint256 rentalAmount);\r\n    event MoneyTransferred(address indexed renterAddress, address indexed renteeAddress, uint256 amount);\r\n    event RenterRegistered(address indexed renterAddress, string name);\r\n    event VehicleReturned(address indexed vehicleAddress, address indexed renteeAddress);\r\n\r\n    modifier onlyOwner() {\r\n        require(msg.sender == owner, \"Not the owner\");\r\n        _;\r\n    }\r\n\r\n    modifier onlyRenter() {\r\n        require(renters[msg.sender].renterAddress == msg.sender, \"Not a registered renter\");\r\n        _;\r\n    }\r\n\r\n    modifier vehicleExists(address vehicleAddress) {\r\n        require(vehicles[vehicleAddress].status == VehicleStatus.Available, \"Vehicle is not available\");\r\n        _;\r\n    }\r\n\r\n    modifier renterExists(address renterAddress) {\r\n        require(renters[renterAddress].renterAddress == renterAddress, \"Renter not registered\");\r\n        _;\r\n    }\r\n\r\n    modifier renteeExists(address renteeAddress) {\r\n        require(rentees[renteeAddress].renteeAddress == renteeAddress, \"Rentee not registered\");\r\n        _;\r\n    }\r\n\r\n    modifier rentedVehicleExists(address vehicleAddress) {\r\n        require(vehicles[vehicleAddress].status == VehicleStatus.Rented, \"Vehicle is not rented\");\r\n        _;\r\n    }\r\n\r\n    constructor() public{\r\n        owner = msg.sender;\r\n    }\r\n\r\n    function addVehicle(string calldata make, string calldata model, uint256 rentalPrice) external onlyRenter {\r\n        address payable vehicleAddress = address(uint160(msg.sender)); // Use the renter's address as the vehicle address\r\n\r\n        vehicles[vehicleAddress] = Vehicle({\r\n            make: make,\r\n            model: model,\r\n            rentalPrice: rentalPrice,\r\n            status: VehicleStatus.Available\r\n        });\r\n\r\n        vehiclesAddresses.push(vehicleAddress);\r\n\r\n        emit VehicleAdded(vehicleAddress, make, model, rentalPrice);\r\n    }\r\n\r\n    function registerRenter(address renterAddress, string calldata name) external onlyOwner {\r\n        renters[renterAddress] = Renter({\r\n            renterAddress: renterAddress,\r\n            name: name\r\n        });\r\n        emit RenterRegistered(renterAddress, name);\r\n    }\r\n\r\n    function registerRentee(address renteeAddress, string calldata name, uint256 initialBalance) external onlyOwner {\r\n        rentees[renteeAddress] = Rentee({\r\n            renteeAddress: renteeAddress,\r\n            name: name,\r\n            balance: initialBalance\r\n        });\r\n    }\r\n\r\n    function displayAvailableVehicles() external view returns (address payable[] memory) {\r\n        address payable[] memory availableVehicles = new address payable[](getAvailableVehicleCount());\r\n        uint256 index = 0;\r\n\r\n        for (uint256 i = 0; i < vehiclesAddresses.length; i++) {\r\n            address payable vehicleAddress = vehiclesAddresses[i];\r\n            if (vehicles[vehicleAddress].status == VehicleStatus.Available) {\r\n                availableVehicles[index] = vehicleAddress;\r\n                index++;\r\n            }\r\n        }\r\n\r\n        return availableVehicles;\r\n    }\r\n\r\n    function rentVehicle(address payable vehicleAddress) external payable\r\n        vehicleExists(vehicleAddress)\r\n        renteeExists(msg.sender)\r\n    {\r\n        address renteeAddress = msg.sender;\r\n        require(msg.value >= vehicles[vehicleAddress].rentalPrice, \"Incorrect rental amount\");\r\n\r\n        vehicles[vehicleAddress].status = VehicleStatus.Rented;\r\n        uint256 rentalAmount = vehicles[vehicleAddress].rentalPrice;\r\n        rentees[renteeAddress].balance -= rentalAmount;\r\n        \r\n        address payable renterAddressPayable = address(uint160(renters[msg.sender].renterAddress));\r\n        renterAddressPayable.transfer(rentalAmount);\r\n\r\n        emit VehicleRented(vehicleAddress, renteeAddress, rentalAmount);\r\n        emit MoneyTransferred(msg.sender, renteeAddress, rentalAmount);\r\n    }\r\n\r\n    function returnVehicle(address payable vehicleAddress) external\r\n        rentedVehicleExists(vehicleAddress)\r\n        renteeExists(msg.sender)\r\n    {\r\n        address renteeAddress = msg.sender;\r\n\r\n        // Mark the vehicle as available\r\n        vehicles[vehicleAddress].status = VehicleStatus.Available;\r\n\r\n        // Emit an event to log the return of the vehicle\r\n        emit VehicleReturned(vehicleAddress, renteeAddress);\r\n    }\r\n\r\n    function getVehicleDetails(address vehicleAddress) external view returns (string memory, string memory, uint256, VehicleStatus) {\r\n        return (\r\n            vehicles[vehicleAddress].make,\r\n            vehicles[vehicleAddress].model,\r\n            vehicles[vehicleAddress].rentalPrice,\r\n            vehicles[vehicleAddress].status\r\n        );\r\n    }\r\n\r\n    function getAvailableVehicleCount() public view returns (uint256) {\r\n        uint256 count = 0;\r\n\r\n        for (uint256 i = 0; i < vehiclesAddresses.length; i++) {\r\n            address payable vehicleAddress = vehiclesAddresses[i];\r\n            if (vehicles[vehicleAddress].status == VehicleStatus.Available) {\r\n                count++;\r\n            }\r\n        }\r\n\r\n        return count;\r\n    }\r\n}\r\n",
  "sourcePath": "C:\\Users\\kshv2\\Desktop\\BCT Final Project\\contracts\\VehicleRentingSystem.sol",
  "compiler": {
    "name": "solc",
    "version": "0.5.16+commit.9c3226ce.Emscripten.clang"
  },
  "schemaVersion": "3.4.16",
  "updatedAt": "2023-11-29T09:07:09.416Z",
  "networkType": "ethereum",
  "devdoc": {
    "methods": {}
  },
  "userdoc": {
    "methods": {}
  }
}